:020000040800F2
:10000000780D0020E5020008450300083B30000899
:1000100045030008450300084503000800000000F0
:100020000000000000000000000000004503000880
:1000300045030008000000004503000845030008D0
:100040004503000845030008450300084503000870
:100050004503000845030008450300084503000860
:100060004503000845030008450300084503000850
:100070004503000845030008450300084503000840
:100080004503000845030008450300084503000830
:100090004503000845030008450300084503000820
:1000A0004503000845030008450300084503000810
:1000B0004503000845030008450300084503000800
:1000C00045030008450300084503000845030008F0
:1000D00045030008450300084503000845030008E0
:1000E0004503000845030008450300080000000020
:1000F0000000000000000000000000000000000000
:1001000000000000000000005FF808F180B582B038
:1001100000AF7860144B1B785A1CD1B2124A117090
:100120007A68D1B2114AD1540F4B1B780F4A002183
:10013000D1540D4B1B7801330F2B05D87B680A2B4C
:1001400002D07B68002B0CD1074B00221A70074BA2
:1001500004201946002202F065FF0346002B00D060
:1001600000BF0837BD4680BDAC0400209C040020C1
:1001700080B500AF154B154A126842F001021A60B3
:10018000124A124B5968124B0B4053600F4A0F4BE7
:100190001B6823F0847323F4803313600B4B0B4AEA
:1001A000126822F480221A60084B084A526822F42E
:1001B000FE025A60054B4FF41F029A6000F00CF8E3
:1001C000044B4FF000629A6080BD00BF00100240F7
:1001D0000000FFF800ED00E080B500AF00F002F88D
:1001E00080BD00BF80B483B000AF00237B600023DC
:1001F0003B603A4B394A126842F480321A60374BFE
:100200001B6803F400333B607B6801337B603B6811
:10021000002B03D17B68B3F5A06FF0D12F4B1B6887
:1002200003F40033002B02D001233B6001E00023E4
:100230003B603B68012B4BD1294B294A126842F0A5
:1002400010021A60264B264A126822F003021A6036
:10025000234B234A126842F002021A601F4B1F4AC6
:1002600052685A601D4B1D4A52685A601B4B1B4A0C
:10027000526842F480625A60184B184A526822F45D
:100280007C125A60154B154A526842F4E8125A60C3
:10029000124B124A126842F080721A6000BF0F4B74
:1002A0001B6803F00073002BF9D00C4B0B4A52680B
:1002B00022F003025A60094B084A526842F00202D7
:1002C0005A6000BF054B5B6803F00C03082BF9D1A3
:1002D0000C37BD465DF8047B704700BF001002403C
:1002E0000020024080B582B000AF114B7B60114B03
:1002F0003B6007E03B681A1D3A607A68111D79601F
:1003000012681A603A680C4B9A42F3D30B480C49B6
:100310004FF000028842B8BF40F8042BFFF6FAAF56
:10032000FFF726FF01F0FCFE0837BD4680BD00BF89
:1003300084750008000000209C0400209C0400201C
:100340007409002080B400AFFEE700BF80B582B022
:1003500000AF0420012102F0D9FC4FF480500121AC
:1003600002F0D4FCE023BB800323BB711823FB7194
:100370003B1D0A48194601F053FB1023BB800323A1
:10038000BB711023FB713B1D0448194601F048FB6B
:10039000012000F005F80837BD4680BD0008014087
:1003A00080B588B000AF0346FB713023FB61FB7959
:1003B000012B02D13023FB6104E0FB79022B01D138
:1003C0000023FB611248002105F0AEF900233B81B8
:1003D0004FF482737B810023BB810023FB810023C8
:1003E0003B824FF400737B82FB699BB2BB8200238C
:1003F000FB8207233B8307F108030548194605F0F4
:100400004FF90348012105F08FF92037BD4680BD23
:100410000030014080B483B000AF0346FB710B4B4A
:10042000FA7992B29A8100BF084B1B899BB203F004
:100430000103002BF8D0054B9B899BB2DBB2184619
:100440000C37BD465DF8047B704700BF00300140AB
:1004500080B485B000AF02460B46FA71BB718923A8
:10046000FB72FA79BB795340FB710023FB600DE00E
:10047000FB795BB2002B03DAFA79FB7A5340FB710C
:10048000FB795B00FB71FB680133FB60FB68072BAA
:10049000EEDDFB7918461437BD465DF8047B7047E6
:1004A00080B483B000AF02460B46FA807B71FB88B4
:1004B0001B0A9BB2DBB21A46FB881B029BB213439A
:1004C0009BB2FB807B799AB2FB885340FB80FB8810
:1004D000DBB21B09DBB21A46FB885340FB80FB886A
:1004E0001B039AB2FB8853409BB2FB80FB88DBB2B4
:1004F0005B019AB2FB8853409BB2FB80FB88184695
:100500000C37BD465DF8047B704700BF80B584B0F2
:1005100000AF7860396000237B810023FB600DE031
:10052000FB687A6813441B787A8910461946FFF7EE
:10053000B7FF03467B81FB680133FB60FA683B68C9
:100540009A42EDDB7B8918461037BD4680BD00BF5F
:1005500080B584B000AF03463960FB710023FB73A4
:10056000FB7943F04003DBB21846FFF753FFFB79FA
:1005700043F04003DBB2FA7B10461946FFF768FFF1
:100580000346FB733B681B0EDBB21846FFF742FFC6
:100590003B681B0EDBB2FA7B10461946FFF758FF8B
:1005A0000346FB733B681B0CDBB21846FFF732FFB8
:1005B0003B681B0CDBB2FA7B10461946FFF748FF7D
:1005C0000346FB733B681B0ADBB21846FFF722FFAA
:1005D0003B681B0ADBB2FA7B10461946FFF738FF6F
:1005E0000346FB733B68DBB21846FFF713FF3B681B
:1005F000DBB2FA7B10461946FFF72AFF0346FB736E
:10060000FB7B43F00103DBB21846FFF703FF103713
:10061000BD4680BD80B582B000AF4FF47A737B6079
:100620000AE0FF20FFF7F6FE0346FB70FB785BB2A3
:10063000002B01DBFB7805E07B685A1E7A60002BFB
:10064000EFD1FF2318460837BD4680BD90B583B073
:1006500000AF4FF47A737B600AE0FF20FFF7DAFE09
:1006600003467B807B8803F08003002B00D104E0ED
:100670007B685A1E7A60002BEFD17B68002B01DA71
:10068000FF230BE07B881B029CB2FF20FFF7C2FE1A
:100690000346224613439BB27B807B8818460C3767
:1006A000BD4690BD80B584B000AF7860FFF7B2FF63
:1006B0000346FB60FB68012B02D0FB68DBB220E045
:1006C000FF20FFF7A7FE03461B06FB60FF20FFF796
:1006D000A1FE03461B04FA681343FB60FF20FFF7EB
:1006E00099FE03461B02FA681343FB60FF20FFF7E5
:1006F00091FE0346FA681343FB607B68FA681A6050
:10070000012318461037BD4680BD00BF80B584B0B8
:1007100000AF0346FB71FB790F48194602F0C6F99A
:100720000023FB6012E0FA79FB6842FA03F303F05E
:100730000103002B07D0094BFA6853F82230084810
:10074000194602F0B3F9FB680133FB60FB68062B26
:10075000E9DD1037BD4680BDFC6B000800000020BD
:10076000086C000880B584B000AF0346FB80FB88AE
:100770000F48194602F09AF90023FB6012E0FA884C
:10078000FB6842FA03F303F00103002B07D0094B87
:10079000FA6853F822300848194602F087F9FB68D6
:1007A0000133FB60FB680E2BE9DD1037BD4680BDD1
:1007B000C86C00081C000020086C000880B582B0DE
:1007C00000AF00237B6005E0FF20FFF723FE7B687E
:1007D00001337B607B68072BF6DD0837BD4680BDA3
:1007E00090B58DB002AF78607B680022DA6001209E
:1007F000FFF7D6FDAE4802F059F9AE4B10221A6150
:1008000000237B6205E0FF20FFF704FE7B6A0133D3
:100810007B627B6A092BF6DDA64B10225A61002011
:100820000021FFF795FEFFF7F5FE03463B61FFF75A
:10083000C5FFA04B10221A613B69FF2B00D15FE27C
:100840003B69012B08D09C4802F05AF93B69DBB2A6
:100850001846FFF75BFF59E2984802F051F99848B3
:1008600002F024F9934B10225A6108204FF4D571FD
:10087000FFF76EFE07F10C031846FFF713FF034660
:100880003B61FFF79BFF8B4B10221A617B68DB6893
:1008900043F001027B68DA603B69FF2B00D12FE255
:1008A0003B69012B03D1874802F02AF919E03B6923
:1008B00003F00403002B09D07B68DB6823F00102FE
:1008C0007B68DA60804802F01BF90AE07A4802F09F
:1008D00017F93B69DBB21846FFF718FF6FF0010309
:1008E00016E27A4802F0E2F8724B10225A613A207E
:1008F0000021FFF72DFE07F108031846FFF7D2FE8F
:1009000003463B61FFF75AFF6A4B10221A613B69AD
:10091000FF2B00D1F4E13B69012B0FD03B6903F0C1
:100920000403002B0AD1644802F0EAF83B69DBB209
:100930001846FFF7EBFE6FF00103E9E10423FB61CA
:100940000CE00122FB6902FA03F31A46BB6813406C
:10095000002B00D005E0FB690133FB61FB69172B1D
:10096000EFDDFB690C335A4A82FB03129210DB174E
:10097000D41AFB6903F10C01554B83FB01239A1038
:10098000CB17D21A13469B0013445B00CA1A514876
:10099000214602F08BF81723FB610CE00122FB6972
:1009A00002FA03F31A46BB681340002B00D005E09F
:1009B000FB69013BFB61FB69032BEFDCFB690D333A
:1009C000434A82FB03129210DB17D41AFB6903F12E
:1009D0000D013F4B83FB01239A10CB17D21A13460C
:1009E0009B0013445B00CA1ABB689B0F03F0010312
:1009F000B968C90F00913848214602F057F82F48CE
:100A000002F07EF8354802F051F84FF47A733B62F9
:100A10000023BB617B68DB6803F00103002B02D07D
:100A20004FF08043BB61234B10225A6137200021D5
:100A3000FFF78EFDFFF7EEFD03463B61FFF7BEFEBD
:100A40001C4B10221A613B69FF2B00D158E13B6916
:100A500003F0FE03002B08D0174802F051F83B6961
:100A6000DBB21846FFF752FE50E1124B10225A61DA
:100A70002920B969FFF76CFDFFF7CCFD03463B6108
:100A8000FFF79CFE0B4B10221A613B69FF2B00D134
:100A900036E13B6903F0FE03002B21D0064802F04B
:100AA0002FF83B69DBB21846FFF730FE2EE100BF9E
:100AB000D46C000800080140E46C0008EC6C0008ED
:100AC000F46C0008086D00081C6D0008386D000803
:100AD00067666666486D0008646D00088C6D0008E6
:100AE0003B69002B04D03B6A5A1E3A62002B9AD114
:100AF0003B6AB3F1FF3F03D1874802F001F805E1FB
:100B0000864801F0FDFF7B68DB6803F00103002BE2
:100B100000F09A80824801F0C9FF824B10225A618E
:100B20003A200021FFF714FD07F108031846FFF7EC
:100B3000B9FD03463B61FFF741FE7A4B10221A6173
:100B40003B69FF2B00D1DBE03B6903F0FE03002B88
:100B50000AD0754801F0D4FF3B69DBB21846FFF7B5
:100B6000D5FD6FF00103D3E004237B610CE001228B
:100B70007B6902FA03F31A46BB681340002B00D0CE
:100B800005E07B6901337B617B69172BEFDD7B69B6
:100B90000C33664A82FB03129210DB17D41A7B696E
:100BA00003F10C01614B83FB01239A10CB17D21A7E
:100BB00013469B0013445B00CA1A5D48214601F0AE
:100BC00075FF17237B610CE001227B6902FA03F3B6
:100BD0001A46BB681340002B00D005E07B69013B3F
:100BE0007B617B69032BEFDC7B690D334F4A82FB12
:100BF00003129210DB17D41A7B6903F10D014B4BE2
:100C000083FB01239A10CB17D21A13469B0013447F
:100C10005B00CA1ABB689B0F03F00103B968C90FD8
:100C200000914448214601F041FFBB689B0F03F04F
:100C30000103002B05D07B68DB6843F002027B6870
:100C4000DA60364801F05CFF7B68DB6803F0020382
:100C5000002B28D1384801F029FF324B10225A616D
:100C600010204FF40071FFF773FCFFF7D3FC03462D
:100C70003B61FFF7A3FD2B4B10221A613B69FF2B51
:100C800000D13DE03B6903F0FE03002B08D026486D
:100C900001F036FF3B69DBB21846FFF737FD35E060
:100CA0001E4801F02DFF254801F000FF1D4B1022CA
:100CB0005A613B200021FFF74BFCFFF7ABFC0346DA
:100CC0003B61FFF77BFD174B10221A613B69FF2B3D
:100CD00000D115E03B6903F0FE03002B08D0124859
:100CE00001F00EFF3B69DBB21846FFF70FFD0DE088
:100CF0000A4801F005FF0220FFF752FB002307E03E
:100D00000F4801F0FDFE4FF0FF3301E06FF00103EB
:100D100018462C37BD4690BD9C6D0008EC6C000851
:100D2000A86D000800080140E46C0008676666666C
:100D3000486D0008646D0008C46D0008DC6D000893
:100D4000F46D000880B584B000AF7860114B1022BC
:100D50005A610D200021FFF7FBFBFFF777FC0346EC
:100D6000FB81FFF72BFD0B4B10221A61FB891BB295
:100D7000002B02DA4FF0FF3307E0FB89002B03D092
:100D8000FB891846FFF7EEFC002318461037BD46D6
:100D900080BD00BF0008014090B58BB002AFF86085
:100DA000B9607A6044F62063FB6108E0FF20FFF73A
:100DB00031FB0346FB75FB7DFE2B00D104E0FB6994
:100DC0005A1EFA61002BF1D1FB69002B02DA4FF0B9
:100DD000FF3335E00023BB610AE0BB69BA68D41871
:100DE000FF20FFF717FB03462370BB690133BB618C
:100DF000BA697B689A42F0DBFF20FFF70BFB0346E2
:100E00001B02BB82FF20FFF705FB03461A46BB8A85
:100E10001343BB82B8687968FFF778FB03467B828F
:100E2000BA8A7B8A9A420AD0BA8A7B8A7968009108
:100E30000548064901F03AFE4FF0FF3300E0002379
:100E400018462437BD4690BD006E00085C7200084D
:100E500090B58DB000AFF860B9607A600A23BB62CC
:100E600000237B62FE20FFF7D5FA06E0BB685A1C20
:100E7000BA601B781846FFF7CDFA7B685A1E7A6075
:100E8000002BF3D1B8687968FFF740FB03467B84F9
:100E90007B8C1B0A9BB2DBB21846FFF7BBFA7B8C3C
:100EA000DBB21846FFF7B6FA14E07C6A631C7B627B
:100EB000FF20FFF7AFFA034687F82F3007F1300322
:100EC000234497F82F2003F8202C97F82F30FF2B7E
:100ED00000D004E0BB6A5A1EBA62002BE5D1BB6A9F
:100EE000002B02DA4FF0FF331EE0114BBB6206E02D
:100EF000FF20FFF78FFA0346FF2B00D104E0BB6A07
:100F00005A1EBA62002BF3D1BB6A002B02DA6FF0D3
:100F1000010309E097F82F3003F01F03052B01D1DF
:100F2000002301E097F82F3018463437BD4690BDB6
:100F3000A08601002DE9F04FBFB01AAF7867B44B1F
:100F400010225A6109200021FFF702FBFFF762FB24
:100F50000346C7F88830D7F88830FF2B05D1AC4B53
:100F600010221A614FF0FF335EE2D7F8883003F0A9
:100F7000FE03002B0FD0A64B10221A61A548A649EC
:100F800001F094FDD7F88830DBB21846FFF7BEFBBE
:100F90006FF0010348E207F17803786F19461022D9
:100FA000FFF7FAFEC7F88800FFF708FC984B1022FD
:100FB0001A61D7F88830B3F1FF3F05D1974801F0A7
:100FC0009FFD6FF002032FE297F878309B09DBB2A8
:100FD000002B40F0278197F878309B09DBB2013372
:100FE0003B6797F87930FB6697F87A30BB6697F8DD
:100FF0007B307B6697F87C303B6697F87D301B0929
:10100000DBB2FB6597F87D3003F00F0301229A40B5
:10101000BA6597F87E30DB09DBB27B6597F87E30E6
:101020009B09DBB203F001033B6597F87E305B0957
:10103000DBB203F00103FB6497F87E301B09DBB2DF
:1010400003F00103BB6497F87E3003F003039A02B8
:1010500097F87F309B001A4397F880309B09DBB2EA
:1010600013437B6497F8803003F03803DB103B6454
:1010700097F8803003F00703FB6397F881305B0932
:10108000DBB2BB6397F881309B08DBB203F0070348
:101090007B6397F8813003F003035A0097F882309E
:1010A000DB09DBB213439A1C012303FA02FB97F816
:1010B00082309B09DBB203F0010A97F8823003F01B
:1010C0003F035A0097F88330DB09DBB2134303F187
:1010D000010997F8833003F07F0303F1010897F8C3
:1010E0008430DB09DBB29C4697F884309B08DBB286
:1010F00003F00702012303FA02FE97F8843003F09D
:1011000003039A0097F885309B09DBB21A43012349
:1011100003FA02F697F885305B09DBB203F00105AC
:1011200097F88630DB09DBB21C4697F886309B09BE
:10113000DBB203F0010097F886305B09DBB203F005
:10114000010197F886301B09DBB203F0010297F822
:1011500086309B08DBB203F003037B607B6E009359
:101160003B6E0193FB6D0293BB6D03937B6D049308
:101170003B6D0593FB6C0693BB6C07937B6C0893EC
:101180003B6C0993FB6B0A93BB6B0B937B6B0C93D0
:10119000CDF834B0CDF838A0CDF83C90CDF84080F3
:1011A000CDF844C0CDF848E01396149515941690E8
:1011B000179118927B6819931948396FFA6EBB6EB4
:1011C00001F074FC97F87E3003F003039A0297F85D
:1011D0007F309B001A4397F880309B09DBB21343A2
:1011E0005A1C97F8813003F00303590097F88230B6
:1011F000DB09DBB20B4302339A4097F87D3003F0F2
:101200000F03093B02FA03F3C7F88C30E6E000BF96
:1012100000080140286E0008687200082C6E000863
:10122000406E00087B6FDB6843F002027B6FDA6080
:1012300097F878309B09DBB201333B6397F879303C
:10124000FB6297F87A30BB6297F87B30994697F843
:101250007C309B4697F87D301B09DBB27B6297F8A8
:101260007D3003F00F0301229A403A6297F87E30F6
:10127000DB09DBB2FB6197F87E309B09DBB203F040
:101280000103BB6197F87E305B09DBB203F0010319
:101290007B6197F87E301B09DBB203F001033B61F1
:1012A00097F87F301A0497F880301B021A4397F89A
:1012B00081301343FB6097F882309B09DBB203F067
:1012C0000103BB6097F8823003F03F035A0097F8A0
:1012D0008330DB09DBB2134303F1010A97F8833053
:1012E00003F07F0303F1010897F88430DB09DBB2D8
:1012F0009C4697F884309B08DBB203F00702012379
:1013000003FA02FE97F8843003F003039A0097F87B
:1013100085309B09DBB21A43012303FA02F697F8E2
:1013200085305B09DBB203F0010597F88630DB09F5
:10133000DBB21C4697F886309B09DBB203F0010054
:1013400097F886305B09DBB203F0010197F886302D
:101350001B09DBB203F0010297F886309B08DBB271
:1013600003F003037B60CDF80090CDF804B07B6AF6
:1013700002933B6A0393FB690493BB6905937B6902
:1013800006933B690793FB680893BB680993CDF804
:1013900028A0CDF82C80CDF830C0CDF834E00E96E2
:1013A0000F9510941190129113927B681493214819
:1013B000396BFA6ABB6A01F079FB97F87F301A043F
:1013C00097F880301B021A4397F881301343C7F80F
:1013D0008C30D7F88C309B02C7F88C30D7F88C3023
:1013E000DA0F13445B101448194601F05FFB7B6F62
:1013F000D7F88C205A607B6F01229A6097F8823070
:101400009B09DBB203F00103002B0CD197F882306B
:1014100003F03F035A0097F88330DB09DBB2134334
:101420005A1C7B6F9A60002318469437BD46BDE86E
:10143000F08F00BFE06F00083C7100082DE9F04F0D
:1014400099B00EAFF860474B10225A610A20002174
:10145000FFF77EF8FFF7DEF803467B627B6AFF2B1F
:1014600005D1404B10221A614FF0FF3375E07B6AC3
:1014700003F0FE03002B0ED03A4B10221A613A48BB
:101480003A4901F013FB7B6ADBB21846FFF73EF9DD
:101490006FF0010361E007F11403F86819461022A8
:1014A000FFF77AFC7862FFF789F92E4B10221A6158
:1014B0007B6AB3F1FF3F05D12D4801F021FB6FF0AE
:1014C00002034AE03B7D9E467B7D1E46BB7D1D465A
:1014D000FB7D19463B7E1C467B7EBB60BB7E7B60F2
:1014E000FB7E3B603B7F1B09DBB29B463B7F03F0EF
:1014F0000F0A7B7F9946BB7F9846FB7F9C4697F8F7
:101500002030184697F821301A0197F822301B092D
:10151000DBB2134303F5FA6297F8223003F00F03AE
:10152000013300910194B968029179680391396897
:101530000491CDF814B0CDF818A0CDF81C90CDF8DA
:101540002080CDF824C00A900B920C930948714674
:1015500032462B4601F0AAFA002318462C37BD4626
:10156000BDE8F08F00080140286E00087472000882
:10157000507100086471000880B586B000AFF86053
:10158000B9607A602A4B10225A61FB68DB6803F06D
:101590000203002B04D01120B968FEF7D9FF05E043
:1015A000BB685B0211201946FEF7D2FFFFF732F845
:1015B00003467B617B69FF2B06D11D4B10221A610C
:1015C0004FF0FF337B6129E07B6903F0FE03002BC2
:1015D0000ED0174B10221A61164801F091FA7B6960
:1015E000DBB21846FFF792F86FF001037B6115E05C
:1015F000F86879684FF40072FFF7CEFB7861FFF767
:10160000DDF80B4B10221A617B69B3F1FF3F03D168
:101610006FF002037B6101E0002305E00648B96832
:101620007A6901F043FA7B6918461837BD4680BDD8
:101630000008014080720008B871000880B586B0CB
:1016400000AFF860B9607A602D4B10225A61FB68D8
:10165000DB6803F00203002B04D01820B968FEF702
:1016600077FF05E0BB685B0218201946FEF770FFA4
:10167000FEF7D0FF03467B617B69FF2B06D1204B31
:1016800010221A614FF0FF337B612FE07B6903F07A
:10169000FE03002B0ED01A4B10221A61194801F0DC
:1016A0002FFA7B69DBB21846FFF730F86FF00103C1
:1016B0007B611BE0FF20FEF7ADFEF86879684FF410
:1016C0000072FFF7C5FB7861FFF778F80C4B10222A
:1016D0001A617B69002B07D00B48796901F0E6F9A4
:1016E0006FF002037B6101E0002305E00748B96861
:1016F0007A6901F0DBF97B6918461837BD4680BD71
:101700000008014090720008DC710008F8710008C0
:1017100080B584B000AF78600A23FB607B681B68EB
:10172000002B01D000232AE0FEF710FE08E0FEF7B0
:101730000DFE7868FFF754F80346002B00D104E053
:10174000FB685A1EFA60002BF1D1FB68B3F1FF3F32
:1017500002D14FF0FF3312E07868FFF7F3FA7868B0
:10176000FFF76CFE7868FFF7E5FB0346002B02D01D
:101770004FF0FF3303E07B6801221A600023184614
:101780001037BD4680BD00BF80B586B000AFF860A1
:10179000B9607A600A233B61F868B9687A68FFF734
:1017A000EBFE78610FE0F868FFF71AF80346002BAC
:1017B00000D008E0F868FFF7C5FAF868B9687A68F9
:1017C000FFF7DAFE78617B69002B04DA3B695A1E69
:1017D0003A61002BE7D13B69B3F1FF3F04D10548E3
:1017E0000549BA6801F062F97B6918461837BD46A9
:1017F00080BD00BF1C720008A072000880B586B0D2
:1018000000AFF860B9607A600A233B61F868B96894
:101810007A68FFF713FF78610FE0F868FEF7E0FFE2
:101820000346002B00D008E0F868FFF78BFAF86851
:10183000B9687A68FFF702FF78617B69002B04DAE8
:101840003B695A1E3A61002BE7D13B69B3F1FF3F78
:1018500004D105480549BA6801F028F97B691846A2
:101860001837BD4680BD00BF3C720008A872000852
:1018700080B582B000AF0346FB710648FFF748FF12
:101880000346002B01D1002300E00123184608374E
:10189000BD4680BDB804002080B483B000AF0346CD
:1018A000FB71064B1B68002B01D0002300E00123D5
:1018B00018460C37BD465DF8047B7047B80400201D
:1018C00080B586B000AFB9607A600246FA73BB7328
:1018D00000237B6113E07A697B681A447B695B02B1
:1018E000B9680B440A4811461A46FFF74DFF0346F4
:1018F000002B01D0012307E07B6901337B61BA7BB8
:101900007B699A42E7DC002318461837BD4680BD44
:10191000B804002080B586B000AFB9607A60024696
:10192000FA73BB7300237B6113E07A697B681A4406
:101930007B695B02B9680B440A4811461A46FFF7F7
:101940005DFF0346002B01D0012307E07B690133D3
:101950007B61BA7B7B699A42E7DC00231846183723
:10196000BD4680BDB804002080B483B000AF0B46F4
:101970003A600246FA71BB71BB79032B20D801A2F1
:1019800052F823F095190008A519000899190008C4
:10199000B3190008002314E03B684FF400721A806A
:1019A00000230EE00A4B5B681A463B681A6000236E
:1019B00007E0074B9B681A463B681A60002300E06B
:1019C000042318460C37BD465DF8047B704700BF02
:1019D000B804002080B483B000AF3B796FF30403F8
:1019E0003B71BB886FF34A13BB807B790C2262F397
:1019F000C7037B71BB79042262F30403BB71FB88CC
:101A0000092262F34813FB80FB79212262F347032A
:101A1000FB717B6818460C37BD465DF8047B704748
:101A200080B489B000AF786039600023FB61002387
:101A30003B610023BB610023FB6000237B6100232B
:101A4000BB603B68DB7803F00F03FB613B68DB782E
:101A500003F01003002B04D03B689B78FA69134312
:101A6000FB613B681B88DBB2002B44D07B681B68A2
:101A70007B610023BB6138E0BB69012202FA03F3FA
:101A8000FB603B681B881A46FB6813403B613A6960
:101A9000FB689A4226D1BB699B00FB60FB680F2262
:101AA00002FA03F3BB60BB68DB437A6913407B61D6
:101AB000FB68FA6902FA03F37A6913437B613B68B6
:101AC000DB78282B05D1BB6901229A407B685A61DB
:101AD00008E03B68DB78482B04D1BB6901229A40BF
:101AE0007B681A61BB690133BB61BB69072BC3D932
:101AF0007B687A691A603B681B88FF2B46D97B6834
:101B00005B687B610023BB613AE0BB69083301225B
:101B100002FA03F3FB603B681B881A46FB6813401C
:101B20003B613A69FB689A4227D1BB699B00FB6025
:101B3000FB680F2202FA03F3BB60BB68DB437A69E0
:101B400013407B61FB68FA6902FA03F37A69134375
:101B50007B613B68DB78282B05D1BB690833012208
:101B60009A407B685A613B68DB78482B05D1BB699A
:101B7000083301229A407B681A61BB690133BB615B
:101B8000BB69072BC1D97B687A695A602437BD4687
:101B90005DF8047B704700BF80B485B000AF78600B
:101BA0000B467B800023FB737B689A687B8813401D
:101BB000002B02D00123FB7301E00023FB73FB7BAE
:101BC00018461437BD465DF8047B704780B483B077
:101BD00000AF78600B467B807A887B681A610C378F
:101BE000BD465DF8047B704780B483B000AF786079
:101BF0000B467B807A887B685A610C37BD465DF85E
:101C0000047B704780B582B000AF78603960786837
:101C10003968122202F0ECFD03461A460E4B1A7088
:101C20000D4B1B78002B10D17B68DB687868194658
:101C300003F026F903461A46074B1A70064B1B7829
:101C4000002B02D0786803F007F9034B1B78184685
:101C50000837BD4680BD00BF4407002080B586B070
:101C600000AF44F20400012101F050F825233B7538
:101C700000237B750023BB750123FB7507F114035B
:101C8000184603F0ADFC4FF400733B821823FB743D
:101C90000323BB7407F1100316481946FFF7C0FE73
:101CA0004FF480633B820423FB7407F11003114857
:101CB0001946FFF7B5FE4FF416533B600023BB8077
:101CC0000023FB8000233B810023BB810C237B810D
:101CD0003B460948194601F055F80748012101F033
:101CE0000BF9054840F22551012201F025F918377A
:101CF000BD4680BD000801400038014080B582B07B
:101D000000AF78600FE07B685A1C7A601B78094846
:101D1000194601F059F900BF0648402101F066F963
:101D20000346002BF8D07B681B78002BEBD10837DB
:101D3000BD4680BD0038014080B582B000AF03468B
:101D4000FB71FB791846FEF7E1F90837BD4680BD07
:101D50002DE9F04385B000AF786039600123FB6066
:101D60000023BB6008E0FA6813469B0013445B0045
:101D7000FB60BB680133BB60BA683B689A42F2DB28
:101D8000786804F017F902460B461046194603F02E
:101D9000CFFE02460B461046194604F0F9FB0646F4
:101DA000F86804F0F5F804460D46786804F002F986
:101DB00080468946786804F0FDF802460B461046D6
:101DC000194603F0B5FE02460B464046494603F06D
:101DD00091FF02460B462046294604F03FF9024691
:101DE0000B461046194603F033FF02460B461046D9
:101DF000194604F0CDFB0346044831461A4600F06C
:101E000055FE1437BD46BDE8F08300BFB47200082C
:101E100080B500AFFEF7ACF90420012100F076FF99
:101E20000120012100F072FF80BD00BF80B485B0A9
:101E300000AF786011497A681346DB0013444B60A9
:101E40000E4B00229A600D4B01221A600B4B1B684F
:101E5000FB60FB6803F00103002B04D0FB6803F474
:101E60008033002BF2D0054B00221A60034B002276
:101E70009A601437BD465DF8047B704710E000E0BF
:101E800080B485B000AF0346FB80124BFA8842F263
:101E9000283101FB02F25A600E4B00229A600D4B72
:101EA00001221A600B4B1B68FB60FB6803F0010307
:101EB000002B04D0FB6803F48033002BF2D0054BD9
:101EC00000221A60034B00229A601437BD465DF869
:101ED000047B704710E000E080B582B000AF0123C2
:101EE000BB800423FB713B1D03481946FFF798FD97
:101EF0000837BD4680BD00BF0008014080B582B0F4
:101F000000AF0123BB800323BB711023FB713B1D7A
:101F100003481946FFF784FD0837BD4680BD00BF62
:101F20000008014080B582B000AF0023FB710023A0
:101F3000BB710023FB7125E0BB795B08BB71FFF728
:101F4000DDFF14480121FFF74FFE0420FFF76EFF6D
:101F500010480121FFF73AFE0A20FFF767FFFFF75D
:101F6000BBFF0C480121FFF717FE0346012B03D1ED
:101F7000BB7963F07F03BB712D20FFF757FFFB791F
:101F80000133FB71FB79072BD6D9BB79184608378B
:101F9000BD4680BD0008014080B584B000AF034657
:101FA000FB710023FB73FFF7A9FF0023FB7321E004
:101FB00013480121FFF718FE0F20FFF737FFFB79C9
:101FC00003F00103002B04D00D480121FFF7FEFDB3
:101FD00003E00B480121FFF707FE3C20FFF726FF37
:101FE00007480121FFF7F2FDFB795B08FB71FB7BE2
:101FF0000133FB73FB7B072BDAD91037BD4680BD5D
:102000000008014080B500AFFFF778FF08480121C4
:10201000FFF7EAFD4FF4F070FFF708FF04480121D5
:10202000FFF7D4FD4FF4F070FFF700FF80BD00BF55
:102030000008014080B588B000AF78600023FB77CE
:102040000023BB770023BB83FFF7DCFFCC20FFF727
:10205000A3FF4420FFF7A0FF4FF44870FFF710FFE5
:10206000FFF7D0FFCC20FFF797FFBE20FFF794FFCC
:10207000FFF758FF0346FB77FFF754FF0346BB7794
:10208000BB7FBB83BB8B1A02FB7F1343184604F054
:10209000B1FB034618464FF0834104F0B3FC0346FE
:1020A000BB61B86904F04AFD0346184604F0A2FB80
:1020B0000346B869194604F0E7FA0346184603F0E8
:1020C00079FF02460B46104619464FF00002124BAC
:1020D00003F0C4FF02460B461046194604F058FAB6
:1020E00003467B61B86904F029FD0346DBB23B730C
:1020F0007B69002BB8BF5B429BB2FB8101233B7421
:102100007B6807F10C021068186092889A807868E2
:102110002037BD4680BD00BF00408F40000000005A
:1021200080B5CAB006AFFFF773FEFFF797FD2F48E3
:10213000FFF7E4FD4FF41F40FFF7A2FE2C48FFF726
:10214000DDFD4FF41F40FFF79BFE2A48FFF7D6FD49
:102150004FF41F40FFF794FE2748FFF7CFFD4FF4E1
:102160001F40FFF78DFE2548FFF7C8FD4FF41F40C5
:10217000FFF786FE2248FFF7C1FD4FF41F40FFF72F
:102180007FFE2048FFF7BAFD4FF41F40FFF778FEAF
:102190001D48FFF7B3FD1D4802F0E8FF022300933E
:1021A000272301930023029340F2E27003210D22C2
:1021B000042303F039F90023C7F80C310020FFF79E
:1021C00057FB03461A46124B1A7012481249002256
:1021D00002F0CCFA03461A460D4B1A700C4B1B78D2
:1021E000002B1BD00A4B1B7842E100BFC0720008D5
:1021F000C8720008EC720008187300082873000801
:1022000038730008487300086073000800540040E9
:1022100044070020EC040020C8040020012387F8B4
:102220000B3199489949102202F0E2FA03461A4606
:10223000974B1A7097489849002202F097FA034684
:102240001A46934B1A7090489049FFF7DBFC0346FF
:102250001A468F4B1A708E4B1B78002B06D18F4875
:10226000894902F04BFF884802F0F6FD042003F094
:1022700033F9C7F80401052003F02EF9C7F800016F
:10228000052003F029F9C7F8FC00D7F8FC3003F269
:10229000DF73C7F8F830022003F01EF9C7F8F40026
:1022A000012003F019F9C7F8F000002003F014F939
:1022B000C7F8EC00D7F8F4300093D7F8F03001936A
:1022C000D7F8EC3002937648D7F80411D7F80021FC
:1022D000D7F8F83000F0EAFB07F1CC031846FFF717
:1022E000A9FE97F8CC305AB2B7F8CE30D7F8F8102C
:1022F0000091D7F8F4100191D7F8F0100291D7F8B7
:10230000EC1003910492059366486749D7F80421BD
:10231000D7F8003100F0DEFB5E485F49002202F092
:1023200025FA59485949FFF76DFC03461A46584BA0
:102330001A70574B1B78002B06D15A48524902F0AD
:10234000DDFE514802F088FD584800F0AFFB97F8D9
:10235000CC305AB2B7F8CE30554811461A4600F084
:10236000A5FB97F8CC305AB2B7F8CE304D4851495A
:1023700000F0B0FB5048FFF7C1FC4FF41F40FFF7DF
:102380007FFD4E48FFF7BAFC4648FFF7B7FC4C48C4
:10239000FFF7B4FC4948FFF7B1FC4248FFF7AEFC39
:1023A0004748FFF7ABFC4FF41F40FFF769FD454876
:1023B000FFF7A4FC4FF41F40FFF762FD30A3D3E901
:1023C0000023C7E93823D7E938014FF000023E4B1C
:1023D00003F092FC02460B46D7E9380103F068FF90
:1023E00002460B46C7E9362397F8CC305BB2184655
:1023F00003F0CEFD02460B4610461946D7E93623B8
:1024000003F02CFE02460B46104619464FF0000220
:102410004FF0000303F070FC02460B4610461946CD
:1024200004F0DEF80346C7F8C830D7E93601D7E92B
:10243000382303F013FE02460B464FF000002349F9
:1024400003F058FC02460B46C7E9382307F1C803DE
:10245000C7F8D4301E4800F029FBD7F8C83018461A
:102460000221FFF775FC4FF6C030FFF709FDFDE6CE
:10247000184607F58877BD4680BD00BFAFF30080E2
:102480000000000000485F404C07002090730008E7
:1024900044070020EC040020C80400209C730008BE
:1024A000BC73000820070020D4730008F0730008F4
:1024B000FC730008087400081074000828740008F1
:1024C0004C74000850740008000008400000F03F01
:1024D00064740008AFF3008080B483B000AF78600C
:1024E0000B46FB707B68FA781A70012318460C378C
:1024F000BD465DF8047B704780B485B000AF78605E
:1025000039600023FB600AE07B685A1C7A603A68F5
:10251000511C396012781A70FB680133FB603B680C
:102520001B78002BF0D1FB6818461437BD465DF8C8
:10253000047B704780B586B000AFF8607A603B607E
:102540000B46FB7200237B617B68013B7B603B6831
:10255000092B10D93A681E4BA3FB0213DB08FA7A49
:10256000F86811467A68FFF7E5FF78617B69FA68D9
:102570001344FB6011E00DE0FB7AF8681946FFF7A1
:10258000ABFFFB680133FB607B6901337B617B68D8
:10259000013B7B607B68002BEEDC39680C4BA3FBB6
:1025A0000123DA0813469B0013445B00CA1AD3B216
:1025B0003033DBB2F8681946FFF78EFF03467A69BD
:1025C00013447B617B6918461837BD4680BD00BF48
:1025D000CDCCCCCC80B586B000AFF8607A603B60E3
:1025E0000B46FB7200237B613B68002B03DA3B68E0
:1025F0005B423B6101E03B683B617B68013B7B6088
:102600003B69092B21D93B68002B0DDA3A692F4B26
:10261000A3FB0213DB085B42FA7AF86811467A687A
:10262000FFF7D8FF78610BE03A69284BA3FB021350
:10263000DB08FA7AF86811467A68FFF7CBFF786111
:102640007B69FA681344FB6026E03B68002B03DAE1
:102650007B68013B7B600EE00DE0FB7AF868194671
:10266000FFF73AFFFB680133FB607B6901337B6155
:102670007B68013B7B607B68002BEEDC3B68002BBA
:102680000ADAF8682D21FFF727FF03467A69134419
:102690007B61FB680133FB6039690C4BA3FB0123B1
:1026A000DA0813469B0013445B00CA1AD3B23033D6
:1026B000DBB2F8681946FFF70FFF03467A69134447
:1026C0007B617B6918461837BD4680BDCDCCCCCC2C
:1026D00080B588B002AFF8607A600A46FA72BB72C1
:1026E00000237B617B68013B7B603B6A1B09002BFD
:1026F00012D03B6A1909FA7ABB7A0091F868114640
:102700007A68FFF7E5FF03467A6913447B617B69CA
:10271000FA681344FB6011E00DE0FB7AF868194693
:10272000FFF7DAFEFB680133FB607B6901337B61F5
:102730007B68013B7B607B68002BEEDC3B6A03F02F
:102740000F03092B0BD83B6ADBB203F00F03DBB29C
:102750003033DBB2F8681946FFF7BEFE19E0BB7AEA
:10276000002B0BD03B6ADBB203F00F03DBB2373335
:10277000DBB2F8681946FFF7AFFE0AE03B6ADBB24E
:1027800003F00F03DBB25733DBB2F8681946FFF7EB
:10279000A3FE7B6901337B617B6918461837BD4610
:1027A00080BD00BF80B58AB002AFF860B9607A60C2
:1027B0003B600023BB6100237B61FB68002B03D0DF
:1027C000FB6800221A70F8E0F7E07B681B78252B85
:1027D0000BD0FB685A1CFA607A68511C7960127839
:1027E0001A707B6901337B61E7E07B6801331B78FA
:1027F000252B0BD1FB685A1CFA6025221A707B68C6
:1028000002337B607B6901337B61D6E02023FB7759
:102810000023BB777B6801337B607B681B78302BA0
:1028200005D13023FB777B6801337B600FE00EE03E
:10283000BB7F1A46920013445B00DAB27B681B78B8
:102840001344DBB2303BBB777B6801337B607B6832
:102850001B782F2B03D97B681B78392BE8D9BA7FDB
:102860007B6913441A46BB689A4205D9BB68DAB241
:102870007B69DBB2D31ABB777B681B78583B202B74
:1028800000F28D8001A252F823F000BF5929000800
:102890009F2900089F2900089F2900089F290008F8
:1028A0009F2900089F2900089F2900089F290008E8
:1028B0009F2900089F29000889290008112900087C
:1028C0009F2900089F2900089F2900089F290008C8
:1028D000112900089F2900089F2900089F29000846
:1028E0009F2900089F2900089F2900089F290008A8
:1028F0009F2900089F290008752900089F290008C2
:10290000272900089F2900089F2900083D29000861
:10291000BA7F3B68191D39601B68F97FF868FFF7BB
:1029200059FEB8613EE0BA7F3B68191D39601B68EB
:10293000F97FF868FFF7FEFDB86133E0BA7F3B68C6
:10294000191D39601968FB7F0091F868194600234A
:10295000FFF7BEFEB86125E0BA7F3B68191D3960FC
:102960001968FB7F0091F86819460123FFF7B0FE54
:10297000B86117E03B681A1D3A601B68F868194691
:10298000FFF7BAFDB8610DE03B681A1D3A601B689D
:10299000DBB2F8681946FFF79FFDB86102E04FF01F
:1029A000FF3325E07B6801337B60BB69FA68134421
:1029B000FB607A69BB6913447B617B681B78002BE1
:1029C00004D07A69BB689A42FFF4FFAE7A69BB68AB
:1029D0009A4203D2FB6800221A7008E0FB68013BB0
:1029E000FB60FB6800221A707B69013B7B617B699D
:1029F00018462037BD4680BD80B584B000AFF86072
:102A0000B9607A60F8686421BA687B68FFF7CAFE2B
:102A1000034618461037BD4680BD00BFB0B5A6B00E
:102A200000AFF860B9607A60144B07F110041D46DE
:102A30000FCD0FC40FCD0FC42B68236007F13403F3
:102A40001846B9687A68FFF7D7FF0346632B09DD9C
:102A50000B4B1B68DB6807F110021046194600F0AB
:102A60007FF8FEE707F134031846F96800F078F8BC
:102A7000034618469837BD46B0BD00BF6C740008C9
:102A80008004002080B582B000AF78603960064BCA
:102A90001B689B68184679683A68FFF7BFFF0346D2
:102AA00018460837BD4680BD800400200FB480B5AD
:102AB00082B000AF07F114033B6038693968FFF753
:102AC000E1FF78607B6818460837BD46BDE8804066
:102AD00004B070470EB480B585B000AF786007F1E0
:102AE0002003BB607868F969BA68FFF785FFF86072
:102AF000FB6818461437BD46BDE8804003B07047F8
:102B000080B582B000AF7860054B1B689B68786821
:102B1000194600F025F8034618460837BD4680BD23
:102B20008004002080B582B000AF786039600B4B24
:102B30001B689A683B689A4205D0084B1B68DA68A4
:102B40003B689A4204D17868FFF7F6F87B6801E0A9
:102B50004FF0FF3318460837BD4680BD8004002083
:102B600080B584B000AF786039600023FB6012E06C
:102B70007B681B7818463968FFF7D4FF0346B3F12A
:102B8000FF3F02D14FF0FF330AE0FB680133FB60E7
:102B90007B6801337B607B681B78002BE8D1FB6886
:102BA00018461037BD4680BD80B487B000AF78604E
:102BB00000237B6100233B610023FB600023BB609B
:102BC0004D4B5B6803F00C037B617B69042B07D0E2
:102BD000082B09D0002B34D17B68484A1A6034E0B6
:102BE0007B68464A1A6030E0434B5B6803F470131D
:102BF0003B61414B5B6803F48033FB603B699B0C9A
:102C000002333B61FB68002B06D13B693C4A02FB67
:102C100003F27B681A6013E0374B5B6803F4003300
:102C2000002B06D03B69364A02FB03F27B681A6030
:102C300006E03B69314A02FB03F27B681A6004E05C
:102C400003E07B682D4A1A6000BF2B4B5B6803F0E2
:102C5000F0037B617B691B097B612A4A7B69134412
:102C60001B78DBB2BB607B681A68BB68DA407B68A4
:102C70005A60214B5B6803F4E0637B617B691B0A4C
:102C80007B61204A7B6913441B78DBB2BB607B68A5
:102C90005A68BB68DA407B689A60174B5B6803F43C
:102CA00060537B617B69DB0A7B61164A7B69134455
:102CB0001B78DBB2BB607B685A68BB68DA407B6814
:102CC000DA600D4B5B6803F440437B617B699B0BCF
:102CD0007B610D4A7B6913441B78DBB2BB607B6868
:102CE000DA68BB68B2FBF3F27B681A611C37BD4639
:102CF0005DF8047B704700BF0010024000127A00AC
:102D000000093D00880400209804002080B483B0AE
:102D100000AF78600B46FB70FB78002B06D0094BA8
:102D2000084A91697A680A439A6106E0054B054AA8
:102D300091697A68D2430A409A610C37BD465DF8C2
:102D4000047B70470010024080B483B000AF78600D
:102D50000B46FB70FB78002B06D0094B084AD16963
:102D60007A680A43DA6106E0054B054AD1697A6858
:102D7000D2430A40DA610C37BD465DF8047B7047E8
:102D80000010024080B58CB000AF7860396000233D
:102D9000FB620023BB6200237B6200233B620023B3
:102DA000FB617B68FB617B681B8A9BB2FB62FA6AF2
:102DB0004CF6FF731340FB623B68DB88FA6A1343EF
:102DC000FB62FB6A9AB27B681A827B689B899BB222
:102DD000FB62FA6A4EF6F3131340FB623B689A8873
:102DE0003B681B8913439AB23B685B8913439BB2D0
:102DF000FA6A1343FB62FB6A9AB27B689A817B682A
:102E00009B8A9BB2FB62FA6A4FF6FF431340FB6258
:102E10003B689B89FA6A1343FB62FB6A9AB27B6840
:102E20009A8207F108031846FFF7BEFEFA69304B95
:102E30009A4202D17B69BB6201E03B69BB627B685D
:102E40009B899BB29BB21BB2002B0CDABA6A134669
:102E50009B0013449A001A443B681B685B00B2FB5A
:102E6000F3F37B620BE0BA6A13469B0013449A00AB
:102E70001A443B681B689B00B2FBF3F37B627A6ADF
:102E80001C4BA3FB02135B091B01FB62FB6A1B09C2
:102E9000642202FB03F37A6AD31A3B627B689B8944
:102EA0009BB29BB21BB2002B0DDA3B6ADB0003F135
:102EB0003202104BA3FB02135B0903F00703FA6A0B
:102EC0001343FB620CE03B6A1B0103F13202094B26
:102ED000A3FB02135B0903F00F03FA6A1343FB62BF
:102EE000FB6A9AB27B681A813037BD4680BD00BF4D
:102EF000003801401F85EB5180B483B000AF78608B
:102F00000B46FB70FB78002B08D07B689B899BB23B
:102F100043F400539AB27B689A8107E07B689B89EF
:102F20009BB223F400539AB27B689A810C37BD465A
:102F30005DF8047B704700BF80B487B000AF786055
:102F400013460A467A807B7000233B610023FB60B6
:102F50000023BB6000237B617B687B617B88DBB2E5
:102F60005B09DBB23B617B8803F01F03FB60FB68FE
:102F7000012202FA03F3BB603B69012B03D17B6999
:102F80000C337B6109E03B69022B03D17B69103371
:102F90007B6102E07B6914337B617B78002B06D078
:102FA0007B697A691168BA680A431A6006E07B692E
:102FB0007A691168BA68D2430A401A601C37BD4664
:102FC0005DF8047B704700BF80B483B000AF7860C9
:102FD0000B467B807B88C3F308039AB27B689A8098
:102FE0000C37BD465DF8047B704700BF80B485B0E8
:102FF00000AF78600B467B800023FB737B681B88E7
:103000009AB27B8813409BB2002B02D00123FB7342
:1030100001E00023FB73FB7B18461437BD465DF8C7
:10302000047B7047ABBE00F002B800207047002A56
:1030300000F0018010600120704706980188044A62
:10304000914240F00380043006907047FEE7000094
:10305000ABBE000080B487B000AFF860B9607A60A2
:10306000FB687B61BB683B6107E07B695A1C7A6146
:103070003A69511C396112781A707B685A1E7A605D
:10308000002BF2D11C37BD465DF8047B704700BFB2
:1030900080B487B000AFF860B9607A60FB687B618C
:1030A00005E07B695A1C7A61BA68D2B21A707B68F3
:1030B0005A1E7A60002BF4D11C37BD465DF8047BA4
:1030C000704700BF80B489B000AFF860B9607A6023
:1030D000FB68FB61BB68BB6100237B6100BF7B6851
:1030E0005A1E7A60002B0DD0FB695A1CFA611B78BE
:1030F0001A46BB69591CB9611B78D31A7B617B697D
:10310000002BECD07B6918462437BD465DF8047B64
:10311000704700BF80B483B000AF7860396002E0D0
:103120007B6801337B607B681B78002B05D07B6854
:103130001B781A463B689A42F2D17B681B78184686
:103140000C37BD465DF8047B704700BF80B584B086
:1031500000AF78607B681B79002B35D07B681B6BD8
:10316000FB607B685A787B68343310461946FA68EE
:103170000123FEF7CFFB0346002B01D0012324E0FF
:103180007B6800221A717B685B6AFA68D21A7B68D6
:10319000DB699A4218D27B68DB78BB6011E07B6800
:1031A000DB69FA681344FB607B685A787B683433C8
:1031B00010461946FA680123FEF7ACFBBB68013BD9
:1031C000BB60BB68012BEAD8002318461037BD4608
:1031D00080BD00BF80B582B000AF786039607B6889
:1031E0001A6B3B689A4219D07868FFF7AFFF034625
:1031F000002B01D0012312E07B685A787B683433BE
:10320000104619463A680123FEF75AFB0346002B85
:1032100001D0012303E07B683A681A630023184653
:103220000837BD4680BD00BF80B584B000AF786070
:103230007868FFF78BFF0346FB73FB7B002B40F0A6
:1032400094807B681B78032B40F083807B685B79DC
:10325000012B7ED17B683433184600214FF4007275
:10326000FFF716FF7B68552283F832227B68AA227B
:1032700083F833227B68522283F834207B68522201
:1032800083F835207B68612283F836207B684122F1
:1032900083F837207B68722283F818227B687222B9
:1032A00083F819227B68412283F81A227B68612205
:1032B00083F81B227B681B69DAB27B6883F81C22C7
:1032C0007B681B699BB21B0A9BB2DAB27B6883F8EE
:1032D0001D227B681B691B0CDAB27B6883F81E22F7
:1032E0007B681B691B0EDAB27B6883F81F227B6840
:1032F000DB68DAB27B6883F820227B68DB689BB2EC
:103300001B0A9BB2DAB27B6883F821227B68DB68F8
:103310001B0CDAB27B6883F822227B68DB681B0E09
:10332000DAB27B6883F823227B681B6A5A1C7B68AD
:103330001A637B6859787B6803F134027B681B6BE6
:10334000084611461A460123FEF7E4FA7B6800227C
:103350005A717B685B78184600210022FEF704FB57
:103360000346002B01D00123FB73FB7B184610376B
:10337000BD4680BD80B483B000AF786039603B68E3
:10338000023B3B607B689B699A1E3B689A4201D86E
:10339000002307E07B689B783A6802FB03F27B68B6
:1033A000DB6A134418460C37BD465DF8047B704752
:1033B00080B586B000AF786039603B68012B04D9D6
:1033C0007B689A693B689A4201D8012398E07B6840
:1033D0001B78022B47D0032B66D0012B40F08E8048
:1033E0003B687B617B695B087A6913447B617B681E
:1033F0005A6A7B695B0A134478681946FFF7EAFE4C
:103400000346002B00D079E07B69C3F308037A6898
:10341000134493F834303B617B6901337B617B68F3
:103420005A6A7B695B0A134478681946FFF7D2FE33
:103430000346002B00D061E07B69C3F308037A6880
:10344000134493F834301B023A6913433B613B68E1
:1034500003F00103002B02D03B691B0902E03B692A
:10346000C3F30B034CE07B685A6A3B681B0A1344A6
:1034700078681946FFF7AEFE0346002B00D03DE00A
:103480003B685B0003F4FF7330337A681344043302
:10349000FB60FB6801331B781B029AB2FB681B7848
:1034A00013439BB29BB22BE07B685A6A3B68DB09F3
:1034B000134478681946FFF78DFE0346002B00D0B1
:1034C0001CE03B689B0003F4FE7330337A681344BE
:1034D0000433FB60FB6803331B781A06FB68023376
:1034E0001B781B041A43FB6801331B781B021A4329
:1034F000FB681B78134323F0704301E04FF0FF3368
:1035000018461837BD4680BD80B588B000AFF8605A
:10351000B9607A60BB68012B04D9FB689A69BB6803
:103520009A4202D80223FB77E7E0FB681B78022B64
:1035300072D0032B00F09580012B40F0D980BB683E
:10354000BB61BB695B08BA691344BB61FB685A6A1B
:10355000BB695B0A1344F8681946FFF73BFE034654
:10356000FB77FB7F002B00D0C4E0BB69C3F30803EB
:103570003033FA68134404337B61BB6803F0010302
:10358000002B0DD07B691B78DBB203F00F03DAB29E
:103590007B68DBB21B01DBB21343DBB2DBB201E0C1
:1035A0007B68DBB27A691370BB690133BB61FB686E
:1035B00001221A71FB685A6ABB695B0A1344F868F6
:1035C0001946FFF707FE0346FB77FB7F002B00D071
:1035D00090E0BB69C3F308033033FA681344043343
:1035E0007B61BB6803F00103002B03D07B681B09E0
:1035F000DBB20EE07B691B78DBB223F00F03DAB29B
:103600007B681B0ADBB203F00F03DBB21343DBB2B0
:10361000DBB27A6913706DE0FB685A6ABB681B0AFB
:103620001344F8681946FFF7D5FD0346FB77FB7F87
:10363000002B00D05EE0BB685B0003F4FF73303307
:10364000FA68134404337B617B68DAB27B691A70D1
:103650007B6901337A6892B2120A92B2D2B21A70BE
:1036600048E0FB685A6ABB68DB091344F8681946EE
:10367000FFF7B0FD0346FB77FB7F002B00D039E05E
:10368000BB689B0003F4FE733033FA6813440433C1
:103690007B617B6903331B781A067B6902331B78D5
:1036A0001B041A437B6901331B781B021A437B6995
:1036B0001B78134303F070437A6813437B607B6885
:1036C000DAB27B691A707B6901337A6892B2120AA6
:1036D00092B2D2B21A707B6902337A68120CD2B2FB
:1036E0001A707B6903337A68120ED2B21A7001E045
:1036F0000223FB77FB6801221A71FB7F18462037F3
:10370000BD4680BD80B584B000AF786039603B684D
:10371000012B04D97B689A693B689A4202D802233C
:10372000FB733BE00023FB7333E078683968FFF7F5
:103730003FFEB860BB68002B00D12FE0BB68012BB7
:1037400002D10223FB7329E0BB68B3F1FF3F02D132
:103750000123FB7322E0786839680022FFF7D4FE6A
:103760000346FB73FB7B002B00D017E07B681B69D3
:10377000B3F1FF3F0BD07B681B695A1C7B681A6151
:103780007B685B7943F00103DAB27B685A71BB68EE
:103790003B607B689A693B689A42C6D8FB7B1846B7
:1037A0001037BD4680BD00BF80B586B000AF7860E1
:1037B00039603B68002B0DD17B68DB683B613B695E
:1037C000002B04D07B689A693B699A4215D8012383
:1037D0003B6112E078683968FFF7EAFDB860BB68C2
:1037E000012B01D801236AE07B689A69BB689A4281
:1037F00001D9BB6863E03B683B613B697B617B69E6
:1038000001337B617B689A697B699A4207D80223FE
:103810007B617A693B699A4201D900234FE078685D
:103820007969FFF7C5FDB860BB68002B0CD100BFFC
:10383000786879696FF07042FFF766FE0346FB73A4
:10384000FB7B002B1AD10FE0BB68B3F1FF3F02D026
:10385000BB68012B01D1BB6831E07A693B699A42B0
:1038600001D100232BE0CAE73B68002B06D0786823
:1038700039687A69FFF748FE0346FB73FB7B002B30
:1038800014D17B687A69DA607B681B69B3F1FF3F0A
:1038900014D07B681B695A1E7B681A617B685B7950
:1038A00043F00103DAB27B685A7107E0FB7B012B1E
:1038B00002D14FF0FF3300E001237B617B691846A2
:1038C0001837BD4680BD00BF80B584B000AF7860BA
:1038D0000B467B807B687A88DA807B689B68FB601C
:1038E000FB68012B05D07B681B689A69FB689A42CC
:1038F00001D8022365E0FB68002B08D17B681B68B8
:103900001B78032B03D17B681B689B6AFB60FB68F9
:10391000002B14D17B68FA68DA607B681B681B890E
:103920007A889A4201D302234BE07B681B689A6A2B
:103930007B881B099BB21A447B681A6135E07B685F
:103940001B689B781B017B811BE07B681B6818460A
:10395000F968FFF72DFDF860FB68B3F1FF3F01D177
:1039600001232EE0FB68012B05D97B681B689A694F
:10397000FB689A4201D8022323E07A887B89D31A14
:103980007B807A887B899A42DFD27B68FA68DA602A
:103990007B681B681846F968FFF7ECFC02467B88D9
:1039A0001B099BB21A447B681A617B681A687B8882
:1039B00003F00F035B01303313441A1D7B685A6117
:1039C000002318461037BD4680BD00BF90B585B0B6
:1039D00000AF786039607B68DB8801333B813B89CD
:1039E000002B03D07B681B69002B01D10423BBE0B3
:1039F0003B8903F00F039BB2002B40F0A6807B684D
:103A00001B695A1C7B681A617B68DB68002B08D134
:103A10007B681B681B893A899A42C0F09680042310
:103A2000A2E03B891B099BB21A467B681B689B7806
:103A3000013B1340002B40F088807B681A687B684C
:103A4000DB6810461946FFF7B3FCF860FB68012BF2
:103A500001D8022388E0FB68B3F1FF3F01D10123C5
:103A600082E07B681B689A69FB689A4261D83B6870
:103A7000002B01D1042377E07B681A687B68DB6840
:103A800010461946FFF790FEF860FB68002B01D145
:103A9000072369E0FB68012B01D1022364E0FB6886
:103AA000B3F1FF3F01D101235EE07B681B6818463C
:103AB000FFF74CFB0346002B01D0012354E07B6849
:103AC0001B683433184600214FF40072FFF7E0FA08
:103AD0007B681C687B681B681846F968FFF74AFC1E
:103AE000034623630023FB7215E07B681B680122F9
:103AF0001A717B681B681846FFF728FB0346002BEA
:103B000001D0012330E07B681B681A6B01321A6315
:103B1000FB7A0133FB727B681B689B78FA7A9A42C6
:103B2000E3D37B681B687A681268116BFA7A8A1A89
:103B30001A637B68FA68DA607B681B681846F96864
:103B4000FFF718FC02467B681A617B683A89DA80C5
:103B50007B681A683B8903F00F035B013033134421
:103B60001A1D7B685A61002318461437BD4690BD64
:103B700080B584B000AF7860396078680021FFF7C5
:103B8000A3FE0346FB73FB7B002B2DD10023BB6000
:103B90007B681A687B681B6910461946FFF71AFB99
:103BA0000346FB73FB7B002B00D01DE07B685B6949
:103BB0001B78E52B04D07B685B691B78002B08D150
:103BC000BB680133BB60BA683B689A4200D10BE026
:103BD00001E00023BB6078680121FFF7F7FE034690
:103BE000FB73FB7B002BD3D0FB7B042B01D1072382
:103BF000FB73FB7B18461037BD4680BD80B485B093
:103C000000AF786039603B681B331B781B029AB2A7
:103C10003B681A331B7813439BB29BB2FB607B68F3
:103C20001B78032B0ED13B6815331B781B029AB20D
:103C30003B6814331B7813439BB29BB21B04FA6896
:103C40001343FB60FB6818461437BD465DF8047BE0
:103C5000704700BF80B483B000AF786039607B6884
:103C60001A333A68D2B21A707B681B333A6892B240
:103C7000120A92B2D2B21A707B6814333A68120CEC
:103C8000D2B21A707B6815333A68120C92B2120ADB
:103C900092B2D2B21A700C37BD465DF8047B704701
:103CA00080B586B000AF786078680021FFF70CFE21
:103CB0000346FB75FB7D002B01D0FB7D35E07B6867
:103CC0001A687B681B6910461946FFF783FA03469A
:103CD000FB75FB7D002B00D026E07B685B693B61B8
:103CE0003B691B78FB73FB7B002B02D10423FB7524
:103CF0001AE03B690B331B7803F00803002B0AD151
:103D00007B689B69386919460B22FFF7DBF903468C
:103D1000002B00D108E078680021FFF757FE03462A
:103D2000FB75FB7D002BCAD0FB7D18461837BD46BE
:103D300080BD00BF80B584B000AF78607868012195
:103D4000FFF716FF0346FB73FB7B002B20D17B683C
:103D50001A687B681B6910461946FFF73BFA034651
:103D6000FB73FB7B002B13D17B685B69184600213A
:103D70002022FFF78DF97B685A697B689B691046A2
:103D800019460B22FFF766F97B681B6801221A713E
:103D9000FB7B18461037BD4680BD00BF80B588B09C
:103DA00000AF786039603B681B68FB6002E0FB682D
:103DB0000133FB60FB681B782F2BF8D0FB681B7866
:103DC0005C2BF4D07B689B69BB60B86820210B2218
:103DD000FFF75EF90023FB7700233B613B697B61C2
:103DE0000823BB61FA687B6913441B782E2B30D102
:103DF0007B695A1C7A61FA6813441B78BB77BB7FD6
:103E00002E2B0AD17B69022B07D83B695A1C3A61D9
:103E1000BA681344BA7F1A70EAE7BB7F2F2B07D02A
:103E2000BB7F5C2B04D0BB7F202B01D90623A4E0F1
:103E3000FA687B691A443B681A60BB6803F10B029D
:103E4000BB7F202B01D8242300E020231370002304
:103E500093E07B695A1C7A61FA6813441B78BB773C
:103E6000BB7F202B54D9BB7F2F2B51D0BB7F5C2B2A
:103E70004ED0BB7F2E2B03D03A69BB699A4210D338
:103E8000BB69082B02D1BB7F2E2B01D0062374E027
:103E900008233B610B23BB61FB7F9B00FB7700BFCB
:103EA000D7E7BB7F5BB2002B08DAFB7F43F003034D
:103EB000FB77BB7F803B334AD35CBB77BB7F324809
:103EC0001946FFF727F90346002B01D0062354E0DB
:103ED000BB7F402B07D9BB7F5A2B04D8FB7F43F015
:103EE0000203FB770CE0BB7F602B09D9BB7F7A2BE9
:103EF00006D8FB7F43F00103FB77BB7F203BBB77FA
:103F00003B695A1C3A61BA681344BA7F1A70A0E739
:103F1000FA687B691A443B681A60BB7F202B01D882
:103F2000042300E00023BB773B69002B01D106236B
:103F300023E0BB681B78E52B02D1BB6805221A7011
:103F4000BB69082B02D1FB7F9B00FB77FB7F03F053
:103F50000303012B03D1BB7F43F01003BB77FB7F2F
:103F600003F00C03042B03D1BB7F43F00803BB77A2
:103F7000BB680B33BA7F1A70002318462037BD4642
:103F800080BD00BF907400081075000880B485B033
:103F900000AF78604FF0FF33FB607B681B68002B3D
:103FA0001CD07B681B681B78303BFB60FB68082BD0
:103FB00012D87B681B6801331B783A2B0CD17B68C5
:103FC0001B689A1C7B681A60FB68002B03DD4FF0AE
:103FD000FF33FB6002E001E00023FB60FB68184652
:103FE0001437BD465DF8047B704700BF80B584B0D0
:103FF00000AF786039603B681B782F2B03D03B689B
:104000001B785C2B06D13B6801333B607B68002248
:104010009A6004E07B681B685A697B689A603B6819
:104020001B781F2B09D878680021FFF74DFC034649
:10403000FB737B6800225A6154E03B46786819465E
:10404000FFF7ACFE0346FB73FB7B002B00D049E07F
:104050007868FFF725FE0346FB737B689B69DB7A74
:10406000BB73FB7B002B20D0FB7B042B1CD1BB7BC9
:1040700003F02003002B0FD07B6800229A607B683E
:1040800000225A61BB7B03F00403002B01D100BF67
:10409000D3E70023FB7307E0BB7B03F00403002B93
:1040A00002D10523FB731DE01CE0BB7B03F004037E
:1040B000002B00D016E07B685B69BB60BB680B33EC
:1040C0001B7803F01003002B02D10523FB7309E0DA
:1040D0007B681B681846B968FFF790FD02467B684D
:1040E0009A60AAE7FB7B18461037BD4680BD00BF2B
:1040F00080B582B000AF786039607B6800221A71A9
:104100007B684FF0FF321A6378683968FFF762F80E
:104110000346002B01D0032342E07B6893F833323F
:104120001B029AB27B6893F8323213439BB21AB2E5
:104130001D4B9A4201D0022332E07B6893F86D3028
:104140001A067B6893F86C301B041A437B6893F85B
:104150006B301B021A437B6893F86A30134323F0D9
:104160007F42124B9A4201D1002319E07B6893F8F9
:1041700089301A067B6893F888301B041A437B68E1
:1041800093F887301B021A437B6893F886301343F9
:1041900023F07F42054B9A4201D1002300E0012326
:1041A00018460837BD4680BD55AAFFFF464154005A
:1041B00080B596B000AFF860B9601346FB71FB683C
:1041C00000221A60B868FFF7E1FEF863FB6B002B72
:1041D00001DA0B238FE29A4BFA6B53F82230BB6360
:1041E000BB6B002B01D10C2385E2FB68BA6B1A6014
:1041F000BB6B1B78002B1AD0BB6B5B781846FDF7A6
:104200004BFB034687F8373097F8373003F001034C
:10421000002B0CD1FB79002B07D097F8373003F037
:104220000403002B01D00A2365E2002363E2BB6B89
:1042300000221A70FB6BDAB2BB6B5A70BB6B5B78F7
:104240001846FDF715FB034687F8373097F83730E7
:1042500003F00103002B01D003234CE2FB79002B78
:1042600007D097F8373003F00403002B01D00A235E
:1042700041E200233B65B86B396DFFF739FF034618
:1042800087F8573097F85730012B57D100233B64FC
:104290002BE03B6C1B0103F5DF733033BA6B134427
:1042A00004333B633B6B04331B78002B12D03B6B16
:1042B0000B331B781A063B6B0A331B781B041A431B
:1042C0003B6B09331B781B021A433B6B08331B788B
:1042D0001A4300E000223B6C9B0007F158010B449D
:1042E00043F8442C3B6C01333B643B6C032BD0D92B
:1042F00000233B643B6C002B02D03B6C013B3B64D6
:104300003B6C9B0007F15802134453F8443C3B6557
:104310003B6D002B05D0B86B396DFFF7E9FE034606
:1043200000E0022387F8573097F85730002B05D06C
:104330003B6C01333B643B6C032BE1D997F857305E
:10434000032B01D10123D6E197F85730002B01D080
:104350000D23D0E1BB6B93F840301B029AB2BB6BCC
:1043600093F83F3013439BB21BB2B3F5007F01D0EB
:104370000D23C0E1BB6B93F84B301B029AB2BB6BB1
:1043800093F84A3013439BB29BB2FB64FB6C002B47
:1043900012D1BB6B93F85B301A06BB6B93F85A30A3
:1043A0001B041A43BB6B93F859301B021A43BB6BB7
:1043B00093F858301343FB64BB6BFA6CDA61BB6B48
:1043C00093F84420BB6BDA70BB6BDB78012B05D014
:1043D000BB6BDB78022B01D00D238CE1BB6BDB7850
:1043E0001A46FB6C02FB03F3FB64BB6B93F84120A2
:1043F000BB6B9A70BB6B9B78002B08D0BB6B9B7818
:104400001A46BB6B9B78013B1340002B01D00D2358
:1044100071E1BB6B93F846301B029AB2BB6B93F809
:10442000453013439BB29AB2BB6B1A81BB6B1B899D
:1044300003F00F039BB2002B04D00D235BE100BF00
:10444000B0040020BB6B93F848301B029AB2BB6BE0
:1044500093F8473013439BB29BB2BB64BB6C002BF9
:1044600012D1BB6B93F857301A06BB6B93F85630DA
:104470001B041A43BB6B93F855301B021A43BB6BEA
:1044800093F854301343BB64BB6B93F843301B0267
:104490009AB2BB6B93F8423013439BB2FB85FB8D02
:1044A000002B01D10D2326E1FA8DFB6C1A44BB6B66
:1044B0001B891B099BB21344BB62BA6CBB6A9A424C
:1044C00001D20D2317E1BA6CBB6AD21ABB6B9B7881
:1044D000B2FBF3F37B627B6A002B01D10D230AE16F
:1044E000012387F857307A6A40F6F5739A4202D969
:1044F000022387F857307A6A4FF6F5739A4202D949
:10450000032387F857307B6A9A1CBB6B9A61BB6B9D
:104510003A6D1A62FA8D3B6D1A44BB6B5A623A6D62
:10452000BB6A1A44BB6BDA6297F85730032B1ED173
:10453000BB6B1B89002B01D00D23DCE0BB6B93F818
:1045400063301A06BB6B93F862301B041A43BB6BD3
:1045500093F861301B021A43BB6B93F860301A4327
:10456000BB6B9A62BB6B9B699B007B641FE0BB6B60
:104570001B89002B01D10D23BDE0BB6B5A6AFB6C7C
:104580001A44BB6B9A6297F85730022B03D1BB6B6E
:104590009B695B000AE0BB6B9A6913465B0013449E
:1045A0005A08BB6B9B6903F0010313447B64BB6B2C
:1045B000DA697B6C03F2FF135B0A9A4201D20D2386
:1045C00099E0BB6B4FF0FF321A61BB6B1A69BB6B92
:1045D000DA60BB6B80225A7197F85730032B78D181
:1045E000BB6B93F865301B029AB2BB6B93F86430D7
:1045F00013439BB21BB2012B6BD13B6D0133B86BE4
:104600001946FEF7E7FD0346002B62D1BB6B002283
:104610005A71BB6B93F833321B029AB2BB6B93F89F
:10462000323213439BB21AB2354B9A4251D1BB6B13
:1046300093F837301A06BB6B93F836301B041A43D5
:10464000BB6B93F835301B021A43BB6B93F83430C5
:104650001A432C4B9A423CD1BB6B93F81B321A067F
:10466000BB6B93F81A321B041A43BB6B93F81932D5
:104670001B021A43BB6B93F818321A43224B9A421F
:1046800027D1BB6B93F81F321A06BB6B93F81E320F
:104690001B041A43BB6B93F81D321B021A43BB6BFE
:1046A00093F81C321A43BB6B1A61BB6B93F823322D
:1046B0001A06BB6B93F822321B041A43BB6B93F8A8
:1046C00021321B021A43BB6B93F820321A43BB6B97
:1046D000DA60BB6B97F857201A700C4B1B880133BC
:1046E0009AB20A4B1A80094B1A88BB6BDA80BB6BF3
:1046F00000225A61002318465837BD4680BD00BFCE
:1047000055AAFFFF5252614172724161B404002008
:1047100080B584B000AF78607B68FB60FB68002BDD
:104720000FD0FB681B68002B0BD0FB681B681B7845
:10473000002B06D0FB681B68DA88FB689B889A42CE
:1047400001D009230DE0FB681B685B781846FDF774
:10475000A3F8034603F00103002B01D0032300E07C
:10476000002318461037BD4680BD00BF80B588B015
:1047700000AFF860B9601346FB7107F108031846F3
:10478000FFF704FCF861FB69002B01DA0B2329E039
:10479000164BFA6953F82230BB61BB69002B02D07B
:1047A000BB6900221A70FB68002B02D0FB68002254
:1047B0001A70F9680D4BFA6943F82210FB68002B58
:1047C00002D0FB79012B01D000230BE007F10C0292
:1047D00007F10803104619460022FFF7E9FC0346DB
:1047E000FB75FB7D18462037BD4680BDB004002018
:1047F00080B592B000AFF860B9601346FB71FB68FA
:10480000002B01D1092332E1FB6800221A60FB79F9
:1048100003F01F03FB71FB7923F00103DBB207F107
:104820001C0107F10802084611461A46FFF7C0FCB2
:10483000034687F8473097F84730002B40F0158142
:1048400007F110037B63BB6807F11C021046194691
:10485000FFF7CCFB034687F847303B6B3B6497F888
:104860004730002B05D13B6C002B02D1062387F883
:104870004730FB7903F01C03002B00F0908097F881
:104880004730002B12D097F84730042B07D107F19F
:104890001C031846FFF74EFA034687F84730FB79AA
:1048A00043F00803FB713B6B3B6412E03B6C0B3342
:1048B0001B7803F01103002B03D0072387F8473040
:1048C00007E0FB7903F00403002B02D0082387F8EC
:1048D000473097F84730002B60D1FB7903F008038D
:1048E000002B5BD0FDF776F8F8633B6C0E33FA6B68
:1048F000D2B21A703B6C0F33FA6B92B2120A92B2B8
:10490000D2B21A703B6C1033FA6B120CD2B21A701E
:104910003B6C1133FA6B120ED2B21A703B6C0B3334
:1049200000221A703B6C1C3300221A703B6C1D3342
:1049300000221A703B6C1E3300221A703B6C1F332E
:1049400000221A70FB691846396CFFF757F9B863F3
:10495000386C0021FFF77EF9FB6901221A71BB6BED
:10496000002B1BD0FB691B6BFB63FB691846B96B03
:10497000FEF7C8FE034687F8473097F84730002B0C
:104980000CD1FB69BA6B013ADA60FB691846F96B26
:10499000FEF720FC034687F847301EE01DE097F83D
:1049A0004730002B19D13B6C0B331B7803F01003FD
:1049B000002B03D0042387F847300EE0FB7903F087
:1049C0000203002B09D03B6C0B331B7803F001036F
:1049D000002B02D0072387F8473097F84730002B89
:1049E0000FD1FB7903F00803002B03D0FB7943F0D0
:1049F0002003FB71FB691A6BFB68DA61FB683A6C98
:104A00001A6297F84730002B2FD1FB68FA799A7118
:104A1000FB680022DA71FB691846396CFFF7EEF883
:104A20000246FB681A613B6C1F331B781A063B6C0D
:104A30001E331B781B041A433B6C1D331B781B026F
:104A40001A433B6C1C331B781A43FB68DA60FB6823
:104A500000229A60FB6800229A61FA69FB681A607A
:104A6000FB681B68DA88FB689A8097F8473018461D
:104A70004837BD4680BD00BF80B58AB000AFF86042
:104A8000B9607A603B60BB68BB613B6800221A601A
:104A9000F868FFF73DFE0346FB75FB7D002B01D058
:104AA000FB7D4AE1FB68DB79002B02D0FB68DB79F8
:104AB00043E1FB689B7903F00203002B01D107233C
:104AC0003BE1FB689A687B681A44FB689B689A42E2
:104AD00002D200237B601AE119E1FB689B68C3F3F3
:104AE0000803002B40F0D080FB689B685B0ADAB2B9
:104AF000FB681B689B78013BDBB21340BB75BB7D39
:104B0000002B35D1FB689B68002B10D1FB681B691B
:104B10007B627B6A002B13D1FB681B68184600215F
:104B2000FEF742FE7862FB687A6A1A6108E0FB6869
:104B30001A68FB685B6910461946FEF735FE786215
:104B40007B6A002B00D1E6E07B6A012B04D1FB6875
:104B50000222DA710223F0E07B6AB3F1FF3F04D155
:104B6000FB680122DA710123E7E0FB687A6A5A6187
:104B7000FB681B681A6BFB689B699A420CD1FB6847
:104B80001B681846FEF7E2FA0346002B04D0FB68C8
:104B90000122DA710123D0E0FB681A68FB685B69C7
:104BA00010461946FEF7E6FB38613B69002B04D13D
:104BB000FB680222DA710223BFE0BB7D3A6913442D
:104BC0003B617B685B0AFB61FB69002B42D0BA7DCD
:104BD000FB691A44FB681B689B789A4206D9FB68FC
:104BE0001B689B781A46BB7DD31AFB61FB681B6868
:104BF0005A78FB69DBB21046B9693A69FCF78AFE5C
:104C00000346002B04D0FB680122DA71012394E0F3
:104C1000FB681B681A6B3B69D21AFB699A4215D272
:104C2000FB681B6803F13402FB681B68196B3B6966
:104C3000CB1A5B02B9690B44104619464FF4007257
:104C4000FEF708FAFB681B6800221A71FB695B0219
:104C50003B6248E0FB689A68FB68DB689A4210D3C5
:104C6000FB681B681846FEF771FA0346002B04D058
:104C7000FB680122DA7101235FE0FB681B683A6977
:104C80001A63FB683A699A61FB689B68C3F308037F
:104C9000C3F500733B623A6A7B689A4201D97B682C
:104CA0003B62FB681A68FB689B6910461946FEF771
:104CB00091FA0346002B04D0FB680122DA7101232C
:104CC0003BE0FB681A68FB689B68C3F3080330335A
:104CD000134404331846B9693A6AFEF7BBF9FB6816
:104CE0001B6801221A71BA693B6A1344BB61FB68F5
:104CF0009A683B6A1A44FB689A603B681A683B6A88
:104D00001A443B681A607A683B6AD31A7B607B68F6
:104D1000002B7FF4E2AEFB689A68FB68DB689A427E
:104D200003D9FB689A68FB68DA60FB689B7943F0FB
:104D30002003DAB2FB689A71002318462837BD4673
:104D400080BD00BF80B586B000AF78607868FFF79F
:104D5000DFFC0346FB75FB7D002B77D17B689B79DD
:104D600003F02003002B71D07B681A687B68DB6935
:104D700010461946FEF72EFA0346FB75FB7D002B05
:104D800064D17B681B6A3B613B690B333A690B3228
:104D9000127842F02002D2B21A703B691C337A6852
:104DA000D268D2B21A703B691D337A68D26892B267
:104DB000120A92B2D2B21A703B691E337A68D26874
:104DC000120CD2B21A703B691F337A68D268120E85
:104DD000D2B21A707B681B6938691946FEF73AFF30
:104DE000FCF7F8FDF8603B691633FA68D2B21A7026
:104DF0003B691733FA6892B2120A92B2D2B21A70B1
:104E00003B691833FA68120CD2B21A703B69193335
:104E1000FA68120ED2B21A703B69123300221A706D
:104E20003B69133300221A707B689B7923F02003BF
:104E3000DAB27B689A717B681B6801221A717B6801
:104E40001B681846FEF7F0F90346FB75FB7D184614
:104E50001837BD4680BD00BF80B584B000AF786014
:104E60007868FFF76FFF0346FB73FB7B002B02D1D3
:104E70007B6800221A60FB7B18461037BD4680BD58
:104E800080B588B000AF786039607868FFF740FC83
:104E90000346FB75FB7D002B01D0FB7DEDE07B68BD
:104EA000DB79002B02D07B68DB79E6E07B68DA688F
:104EB0003B689A4208D27B689B7903F00203002B7F
:104EC00002D17B68DB683B607B689B683B610023A9
:104ED000BB617B68BA699A603B68002B00F0AD80CB
:104EE0007B681B689B785B02FB603B69002B1BD0D7
:104EF0003B685A1EFB68B2FBF3F23B69591EFB6824
:104F0000B1FBF3F39A420FD33B695A1EFB685B4235
:104F10001A407B689A607B689B683A68D31A3B604A
:104F20007B685B69FB6123E07B681B69FB61FB6954
:104F3000002B1AD17B681B6818460021FEF734FC51
:104F4000F861FB69012B04D17B680222DA7102232C
:104F500093E0FB69B3F1FF3F04D17B680122DA7172
:104F600001238AE07B68FA691A617B68FA695A61F1
:104F7000FB69002B61D03DE07B689B7903F0020365
:104F8000002B0CD07B681B681846F969FEF70CFCF7
:104F9000F861FB69002B09D1FB683B602EE07B6860
:104FA0001B681846F969FEF703FAF861FB69B3F16B
:104FB000FF3F04D17B680122DA7101235DE0FB69C8
:104FC000012B05D97B681B689A69FB699A4204D852
:104FD0007B680222DA7102234FE07B68FA695A612A
:104FE0007B689A68FB681A447B689A603A68FB6839
:104FF000D31A3B603A68FB689A42BDD87B689A68CE
:105000003B681A447B689A603B68C3F30803002B33
:1050100013D07B681B681846F969FEF7ABF9B861D5
:10502000BB69002B04D17B680222DA71022324E0E1
:105030003B685B0ABA691344BB617B689B68C3F336
:105040000803002B07D07B689A69BB699A4202D09B
:105050007B68BA699A617B689A687B68DB689A4268
:105060000AD97B689A687B68DA607B689B7943F031
:105070002003DAB27B689A71FB7D18462037BD4663
:1050800080BD00BF80B584B000AF78600B46FB7078
:10509000FB780A2B03D178680D21FFF7F3FF7B68BB
:1050A0005B68FB60FB68002B24DBFB685A1CFA6022
:1050B0007A681344FA781A73FB683C2B12DD7B681C
:1050C00018687B6803F10C01FA6807F10803FFF721
:1050D000D3FCFA68BB689A4201D1002301E04FF08B
:1050E000FF33FB607B68FA685A607B689B685A1CD8
:1050F0007B689A601037BD4680BD00BF80B596B012
:1051000000AF786039603B68FB6000233B613B691E
:105110007B6109E07B685A1C7A601B7807F10C02FE
:1051200010461946FFF7AEFF7B681B78002BF1D1C4
:105130003B69002B14DBF8683B691A4607F10C0346
:1051400003F10C0107F10803FFF796FC0346002B5F
:1051500006D13B691A46BB689A4201D17B6901E0DE
:105160004FF0FF3318465837BD4680BD80B588B034
:1051700000AF78607A68344B9A422ED132480121D0
:1051800000F0B4FB4FF400100121FDF7DDFD082015
:105190000121FDF7BBFDC023BB810323BB731C238F
:1051A000FB7307F10C0329481946FCF739FC0A2365
:1051B000BB824BF6FF73FB8200233B834FF480637B
:1051C0007B834FF48043BB83214B3B6107F110038A
:1051D0001D48194600F0C8FA32E07A681D4B9A4221
:1051E0002ED11C48012100F081FB4FF480000121E9
:1051F000FDF7AAFD08200121FDF788FD4FF440636B
:10520000BB810323BB731C23FB7307F10C030F4803
:105210001946FCF705FC0A23BB824BF6FF73FB82A1
:1052200000233B834FF480637B834FF48043BB8335
:10523000074B3B6107F110030648194600F094FA4A
:105240002037BD4680BD00BF00540040000C014027
:10525000A08601000058004080B582B000AF7860A1
:1052600013460A46FA70BB7000BF78684FF40031ED
:1052700000F028FC0346002BF7D17868012100F0EC
:1052800055FB00BF7868134900F0ECFB0346002B88
:10529000F8D0FA78BB78786811461A4600F0C4FB5B
:1052A000BB78002B08D100BF78680B4900F0DAFB0F
:1052B0000346002BF8D00AE0BB78012B07D100BFD2
:1052C0007868064900F0CEFB0346002BF8D008377B
:1052D000BD4680BD010003008200070002000300FC
:1052E00080B582B000AF78600B46FB70FB787868C1
:1052F000194600F07BFB00BF7868044900F0B2FB60
:105300000346002BF8D00837BD4680BD8400070057
:1053100080B584B000AF78607868012100F046FB6A
:1053200000BF7868074900F09DFB0346002BF8D0CA
:10533000786800F06BFB0346FB73FB7B1846103765
:10534000BD4680BD4000030080B584B000AF7860EA
:105350007868002100F02AFB7868012100F006FB44
:1053600000BF7868074900F07DFB0346002BF8D0AA
:10537000786800F04BFB0346FB73FB7B1846103745
:10538000BD4680BD4000030080B582B000AF7860AC
:105390007868012100F0EAFA0837BD4680BD00BFF9
:1053A00080B483B000AF78607B68002B00DA0F33E5
:1053B0001B111A4613469B0013445B001A4679687A
:1053C000074B0B40002B03DA013B63F00F03013363
:1053D000134418460C37BD465DF8047B704700BF88
:1053E0000F00008080B483B000AF78607B680D4A06
:1053F00082FB03129210DB17D31A18017968094B4C
:1054000083FB01239A10CB17D21A13469B00134437
:105410005B00CA1A831818460C37BD465DF8047B3A
:10542000704700BF6766666680B584B000AFF860FD
:10543000B9607A603B602748D0210022FFF70CFF5B
:1054400024480021FFF74CFF386AFFF7CBFF0346E3
:10545000DBB220481946FFF743FFF869FFF7C2FFA8
:105460000346DBB21B481946FFF73AFFB869FFF75E
:10547000B9FF0346DBB217481946FFF731FF38681A
:10548000FFF7B0FF0346DBB212481946FFF728FFCB
:105490007868FFF7A7FF0346DBB20E481946FFF70F
:1054A0001FFFB868FFF79EFF0346DBB209481946A5
:1054B000FFF716FFF868FFF795FF0346DBB20548D4
:1054C0001946FFF70DFF0348FFF75EFF1037BD4693
:1054D00080BD00BF0054004080B584B000AF0346DB
:1054E000FB713E48D0210022FFF7B6FE3B48002169
:1054F000FFF7F6FE3948FFF747FF3848D021012271
:10550000FFF7AAFE3548FFF703FF03461846FFF7EB
:1055100047FF0346FB733148FFF7FAFE0346184680
:10552000FFF73EFF0346BB732C48FFF7F1FE03462F
:105530001846FFF735FF03467B732848FFF7E8FE60
:1055400003461846FFF72CFF03463B732348FFF73B
:10555000DFFE03461846FFF723FF0346FB721F4892
:10556000FFF7D6FE03461846FFF71AFF0346BB7245
:105570001A48FFF7CDFE03461846FFF711FF034612
:10558000DBB2303B7B721548FFF7DEFEFB79002B68
:1055900001D1FB7B1DE0FB79012B01D1BB7B18E026
:1055A000FB79022B01D17B7B13E0FB79032B01D12B
:1055B0003B7B0EE0FB79042B01D1FB7A09E0FB7900
:1055C000052B01D1BB7A04E0FB79052B01D17B7A55
:1055D000FFE718461037BD4680BD00BF00540040AD
:1055E00080B487B000AF786000237B6100233B610B
:1055F0000F23FB607B68DB78002B38D0264BDB6801
:10560000DB4303F4E0631B0A7B617B69C3F10403A2
:105610003B617B69FA6822FA03F3FB607B685B7885
:105620001A463B6902FA03F37B617B689B781A4652
:10563000FB6813407A6913437B617B691B017B61C3
:1056400016497B681B787A69D2B20B4483F8002331
:10565000124B7A6812785209D2B27968097801F04F
:105660001F01012000FA01F143F822100EE00B4B5C
:105670007A6812785209D2B27968097801F01F016C
:10568000012000FA01F1203243F822101C37BD46F8
:105690005DF8047B704700BF00ED00E000E100E032
:1056A00080B485B000AF786039600023FB817B68EF
:1056B0001B88FB81FB8903F44153FB813B681A88FB
:1056C0003B685B8813439AB23B689B8813439AB24A
:1056D0003B68DB8813439AB23B681B8913439AB239
:1056E0003B685B8913439AB23B689B8913439AB228
:1056F0003B68DB8913439AB2FB891343FB817B68C8
:10570000FA891A807B689B8B9BB223F400639AB260
:105710007B689A833B681A8A7B681A821437BD4675
:105720005DF8047B704700BF80B483B000AF786041
:105730000B46FB70FB78002B08D07B681B889BB264
:1057400043F040039AB27B681A8007E07B681B88AD
:105750009BB223F040039AB27B681A800C37BD4697
:105760005DF8047B704700BF80B58AB000AF7860F9
:1057700039600023FB8400237B840423BB84574BC4
:10578000FB617B689B88FB84FB8C23F03F03FB84DD
:1057900007F108031846FDF707FA3B69FB61FA6950
:1057A0004F4BA3FB02139B0C7B84FA8C7B8C134323
:1057B000FB847B68FA8C9A807B681B889BB223F001
:1057C00001039AB27B681A800023FB843B681A6845
:1057D000444B9A4215D83B681B685B00FA69B2FBE0
:1057E000F3F3BB84BB8C032B01D80423BB84FA8C5A
:1057F000BB8C1343FB847B8C01339AB27B681A8485
:1058000040E03B68DA884BF6FF739A4209D13B6867
:105810001A6813465B001344FA69B2FBF3F3BB84C6
:105820000EE03B681A6813469B0013449A00134429
:10583000FA69B2FBF3F3BB84BB8C43F48043BB84B3
:10584000BB8CC3F30B03002B03D1BB8C43F00103D0
:10585000BB84BA8CFB8C13439BB26FEA43436FEA61
:105860005343FB847B8C4FF4967202FB03F31E4A76
:1058700082FB03129211DB17D31A9BB201339AB247
:105880007B681A847B68FA8C9A837B681B889BB23E
:1058900043F001039AB27B681A807B681B88FB8403
:1058A000FB8C23F4816323F00203FB843B689A881A
:1058B0003B685B8913439AB2FB8C1343FB847B6880
:1058C000FA8C1A803B689A893B681B8913439AB209
:1058D0007B681A812837BD4680BD00BF00127A0060
:1058E00083DE1B43A0860100D34D621080B483B0D9
:1058F00000AF78600B46FB70FB78002B08D07B680C
:105900001B889BB243F001039AB27B681A8007E0C0
:105910007B681B889BB223F001039AB27B681A80D4
:105920000C37BD465DF8047B704700BF80B483B080
:1059300000AF78600B46FB70FB78002B08D07B68CB
:105940001B889BB243F480739AB27B681A8007E08D
:105950007B681B889BB223F480739AB27B681A80A1
:105960000C37BD465DF8047B704700BF80B483B040
:1059700000AF78600B46FB70FB78002B08D07B688B
:105980001B889BB243F400739AB27B681A8007E0CD
:105990007B681B889BB223F400739AB27B681A80E1
:1059A0000C37BD465DF8047B704700BF80B483B000
:1059B00000AF78600B46FB70FB78002B08D07B684B
:1059C0001B889BB243F480639AB27B681A8007E01D
:1059D0007B681B889BB223F480639AB27B681A8031
:1059E0000C37BD465DF8047B704700BF80B483B0C0
:1059F00000AF78600B46FB70FB789AB27B681A8226
:105A00000C37BD465DF8047B704700BF80B483B09F
:105A100000AF78607B681B8A9BB2DBB218460C37FC
:105A2000BD465DF8047B704780B483B000AF7860FA
:105A300013460A46FA70BB70BB78002B04D0FB7883
:105A400043F00103FB7003E0FB7823F00103FB70DC
:105A5000FB789AB27B681A820C37BD465DF8047BEE
:105A6000704700BF80B487B000AF78603960002312
:105A70003B610023FB600023BB600023FB757B6858
:105A80009B8A9BB2FB607B681B8B9BB2BB60BB6835
:105A90001B04BB60FA68BB68134323F07F433B6180
:105AA0003A693B681A403B689A4202D10123FB7570
:105AB00001E00023FB75FB7D18461C37BD465DF8F1
:105AC000047B704780B487B000AF786039600023F2
:105AD000FB7500233B610023FB607B68FB603B6838
